:020000040800F2
:10000000580B00205502000865240008252300082D
:1000100061240008D31D0008CB3400080000000054
:10002000000000000000000000000000C5280008DB
:10003000D71D000800000000712500088D29000868
:100040006F0200086F0200086F0200086F020008CC
:100050006F0200086F0200086F0200086F020008BC
:100060006F0200086F0200086F0200086F020008AC
:100070006F0200086F0200086F0200086F0200089C
:100080006F0200086F0200086F0200086F0200088C
:100090006F0200086F0200086F0200086F0200087C
:1000A000E12B0008212C0008012C00086F02000839
:1000B0006F0200086F0200086F0200086F0200085C
:1000C0006F0200086F0200086F0200086F0200084C
:1000D0006F020008E93000085D3100086F02000877
:1000E0006F0200086F0200086F0200086F0200082C
:1000F0006F0200086F0200086F0200086F0200081C
:100100006F0200086F0200086F0200086F0200080B
:100110006F0200086F0200086F0200086F020008FB
:100120006F0200086F0200086F0200086F020008EB
:100130006F0200086F0200086F0200086F020008DB
:100140006F0200086F0200086F0200086F020008CB
:100150006F0200086F0200086F020008CD3200082D
:100160006F0200086F0200086F0200086F020008AB
:100170006F0200086F0200086F0200086F0200089B
:100180006F0200086F02000800F002F800F052F859
:100190000AA090E8000C82448344AAF10107DA45E2
:1001A00001D100F047F8AFF2090EBAE80F0013F0E2
:1001B000010F18BFFB1A43F001031847E85900006C
:1001C000085A0000103A24BF78C878C1FAD85207FC
:1001D00024BF30C830C144BF04680C6070470000C1
:1001E0000023002400250026103A28BF78C1FBD840
:1001F000520728BF30C148BF0B607047662905F021
:100200000684732900F03783002070471FB505F07E
:10021000F4FB00F097FB04000020002105F074F9C6
:10022000401C60600020002105F058F9E0601FBD0F
:1002300010B510BD00F0B2FC1146FFF7E7FF03F068
:10024000FDFF00F02BFF03B4FFF7F2FF03BC03F048
:1002500090FA00000948804709480047FEE7FEE79A
:10026000FEE7FEE7FEE7FEE7FEE7FEE7FEE7FEE766
:1002700004480549054A064B7047000091290008CB
:100280008901000858050020580B0020580700205D
:1002900058070020704700000FB4044910B503AAA6
:1002A000029800F0EDFA10BC5DF814FB3C00002051
:1002B0000FB41CB5074B06AA7B446946009005980D
:1002C00000F0AFFA0020694600F0BEFA1CBC5DF8F1
:1002D00014FB00008D0500002DE9F0410E46044698
:1002E000002020622046E168884730B3252805D0E9
:1002F000D4E901219047206A401CF2E7E1682046DA
:1003000000278847050018D0A5F14100192802D818
:1003100020354FF400673246294620462760FFF714
:100320006DFF40B1012804D0F61D26F007060836FF
:10033000D8E7361DD6E72846DAE7206ABDE8F0811F
:1003400070B50C460546012A05D02878800600D5F0
:10035000EA69002302E0012305E05B1C934202D21C
:10036000E05C0028F9D1A869E618C01AA861286ADB
:10037000184428622846AFF3008004E0D5E9012143
:1003800014F8010B9047B442F8D32846AFF300802D
:1003900070BD4FF0000200B51346944696462039D2
:1003A00022BFA0E80C50A0E80C50B1F12001BFF42E
:1003B000F7AF090728BFA0E80C5048BF0CC05DF894
:1003C00004EB890028BF40F8042B08BF704748BFE2
:1003D00020F8022B11F0804F18BF00F8012B704756
:1003E000704770477047704710B500F0AFFA00686B
:1003F00010BD10B5044600F0A9FA046010BD7047A6
:100400002DE9FF4F0C461E464FF0FF378BB0D2E967
:100410000001DDF860800A908A46C1F30A5505B9EB
:100420003D46002108464FF00000BAF1000F00F4ED
:10043000400005DA00EB80004FF4400101EA500073
:100440004FEA9059B9F1010F00DDB9460A9850EA18
:100450004A000ED044F61050A5F2FF3545432F1444
:10046000B8F1000F1ED07542291E1EDDC9F1000231
:100470001CE0B8F1010F4FF0000001D0302103E083
:10048000F24305E02154401CB042FBDB3046002221
:10049000002121540B99C1F80880C1E900200FB058
:1004A000BDE8F08FBD1B6D1CDEE74A4600DA6942ED
:1004B00006A800F0FDFA06AB93E8070003AB83E85B
:1004C000070050460A9901F076F88DE80700A0F57C
:1004D00000501F3800900398002D09DD42F21F01E3
:1004E0004A46084403A90390684601F000FB08E06F
:1004F000A0F500504A461F3803A90390684601F052
:100500001EFB8DE807000004000C03D04FF0FF3005
:10051000410800E01046B8F1000F03D0002200921D
:1005200015461EE0751E05D400F014FA30326255EF
:100530006D1EF9D5B3460122084302D000227F1C6C
:1005400004E02078302801D100227F1E002A09977C
:1005500086D01DE0112D07DA00F0FCF9303262552B
:100560006D1C50EA0102F5D1084302D00098C8B1D1
:100570000EE00021681E05E0235C625C6354225497
:10058000401E491C8142F7DBAB46A81B401E099068
:10059000002004F80B000B98099AC0F80880C0E905
:1005A000002B7CE711264FF0000859E72DE9F04FAA
:1005B00088460446D21D22F0070191B0D1E900011E
:1005C000CDE90A0102F0AAFF02460B98C00F01D044
:1005D0002D2007E02068810701D52B2002E0202193
:1005E00001EAC000032A099001D0072A05DB03466F
:1005F0004146204600F0FCF90BE12078800601D549
:10060000E06900E00620B8F1650F814606D0B8F138
:10061000660F18D0B8F1670F70D131E00020B9F142
:10062000110F009001DB112301E009F101030AAA77
:1006300001A90CA8FFF7E4FEDDE90C70002609F122
:100640000105834647E001204B4600904FF00047EC
:100650000AAA01A90CA8FFF7D3FEDDE90DB00C9999
:100660005D46002610B909F101000D18B9EB05002F
:1006700003D4C0F1FF3609F10105A5EB09002BE019
:10068000B9F1010F01DA4FF001090020B9F1110FA2
:100690000090484601DD112300E003460AAA01A9A3
:1006A0000CA8FFF7ADFEDDE90C704D460026834631
:1006B000207800070AD4AB4500DA5D4601A8012D79
:1006C00004DD411911F8011C302907D04F4502DA29
:1006D00017F1040F04DA012082460FE06D1EEEE7E9
:1006E000002F02DCED1B3E4403E0781CA84200DD35
:1006F0007D1CB81B00F1010A4FF00047207800076D
:1007000003D4AA4501DB4FF0FF3A0021B7F1004FB7
:100710000DF143088DF8431024D002202B23002F25
:1007200001DA7F422D230A21021EA0F1010000DC24
:100730005FB197FBF1FC97FBF1F201FB1C7C1746C4
:100740000CF1300C08F801CDEEE7A8F101000370C0
:100750002188090501D5452100E06521A0F10108A6
:1007600000F8011C09980FA9A1EB0807FF1D00B1B3
:100770000120411901EBEA70A1693844081A401EB2
:10078000A0612078C00602D42046AFF3008009980B
:1007900028B1D4E901219047206A401C20622078CA
:1007A000C00622D52046AFF300801EE0002E04DBF9
:1007B000B34502DD01A8805D00E03020D4E90121CD
:1007C0009047206A401C2062761CAAF101005FEA73
:1007D000000A0AD100F0B6F8C0680168405CD4E9AC
:1007E00001219047206A401C2062281EA5F10105C6
:1007F000DCDC07E0D4E9012118F8010B9047206AFE
:10080000401C2062381EA7F10107F3DC2046AFF33D
:100810000080032011B043E601694A1C0261087898
:10082000704700B58FB0CDE9013100210591054930
:100830007944CDE9031011466846FFF74DFD0FB02E
:1008400000BD0000E5FFFFFF0A6802F8010B0A6027
:10085000704710B5436913B1AFF3008001E0FFF7B3
:100860006FFD012010BD127800F124010A700022F2
:100870004A700122EDE711684FF0FF32E9E700000E
:10088000074B70B50D467B44FFF7CBFF0446284667
:1008900000F07CF910B14FF0FF3070BD204670BD04
:1008A000433000000FB4002300B589B00CA90091BB
:1008B0000B99CB60204B7B440693204B7B440793E2
:1008C00004236FF00042CDE901321D4A7A446B46A1
:1008D00008920246002005F0FCF809B05DF814FB10
:1008E00070B506464FF0FF3015460C46324686B0CE
:1008F0000091CDE9010169460020049004A8FFF7AA
:10090000D1FF03460498211825B108B10A4600E03A
:1009100022462A6000280DD0002B02DD0098884274
:1009200008D03246081B69460094CDE9010404A8AA
:10093000FFF7B8FF06B070BDB7010000CF0100009F
:100940000F01000000487047140500200048704760
:10095000F404002030B5B0F10A024FEA900E71F1B4
:1009600000034EEA817EB0EB0E0061EB91014FEA8D
:10097000101E4EEA017E10EB0E0041EB11114FEA02
:10098000102E4EEA016E10EB0E0041EB11214FEAE2
:10099000104E4EEA014E10EB0E0041EB1141401893
:1009A00041F100014FEAD00040EA41704FEAD10125
:1009B00010EB80054FEA810444EA907444EB010493
:1009C0006D1944EB0404521BA3414FF0000348BFD0
:1009D0000A3200D530BD401C41F1000130BD10B5D8
:1009E000044600F001F90068005D00F0010010BD50
:1009F0002DE9F0411F46044603260168072A01F449
:100A0000006004DB08B116A505E016A503E008B1F7
:100A100015A500E015A521F010002060A069C01EFA
:100A2000A0610FB1401EA0612046AFF300804FB11E
:100A3000D4E9012138469047206A401C2062C01C3E
:100A4000206206E0206AFAE7D4E9012115F8010BDB
:100A50009047761EF8D22046AFF30080BDE8F081C3
:100A60004E414E006E616E00494E4600696E660052
:100A7000426842B1016811F8013B23B1521EC0E93E
:100A80000012184670470121C160881E70474268F5
:100A90005AB1C368016843B983688B4205D0491EC7
:100AA000521CC0E90012002070474FF0FF30704721
:100AB0002DE9F047814616468AB0334878440DC880
:100AC0008DE80D0030487844801C03AC0DC884E8E4
:100AD0000D0041F69B300844372190FBF1F290FB6A
:100AE000F1F5A5F1800501FB12041B3C02D564421F
:100AF000012000E00020DFF890A080460027FA44A3
:100B0000AAF1BE0A0DE0E00709D03246684607EBBD
:100B100047010AEB810101F012F88DE8070064102B
:100B20007F1C002CEFD1184F7F44AC3F18E0E80742
:100B300014D007EB04100DF1180A90E80E008AE8B3
:100B40000E00C068F04201D198190890324606A9FB
:100B500003A800F0F4FF03AB83E807006D10641CEA
:100B6000002DE4D132466946B8F1000F03A802D047
:100B700000F0BDFF01E000F0E2FFC9E90001C9F8A3
:100B800008200AB0BDE8F087CC500000007B00F0E0
:100B90008000704700487047F40400207546FFF756
:100BA000F9FFAE4605006946534620F0070085462A
:100BB00018B020B5FFF75CFBBDE820404FF0000601
:100BC0004FF000074FF000084FF0000B21F0070135
:100BD000AC46ACE8C009ACE8C009ACE8C009ACE878
:100BE000C0098D467047000010B5FFF7ABFE001D31
:100BF00010BD00BF154900002DE9FF4F064689B022
:100C00000878FF2806D0491C2D2805D000244FF075
:100C1000000908E000200CE00124F8E709EB890353
:100C2000491C00EB43090878FF28F7D114B1C9F13A
:100C300000008146107800252C46AA4629462D281A
:100C400001D02B2804D1521C2D2813D0002082461D
:100C50008B461078FF280FD04FF0000C0A21521C51
:100C6000A5FB017804FB018105FB0C11C5194BEBB9
:100C70000104EEE70120EAE7002108464FF00000FA
:100C8000BAF1000F02D000EB80004008C0F3815899
:100C9000B8F1010F01DD4FF0FF380C9809EB0007A8
:100CA00055EA040009D04FF0020917F5FA7F0BDA74
:100CB0004FEACA70C6E900B012E04FEACA70C6E94E
:100CC00000B00DB0BDE8F08FB7F5FA7F0DDDF0484C
:100CD0007844D0E90010C6E9001040EACA7070609C
:100CE000FFF734FEC0F80090EBE7391E02DAC8F1D6
:100CF000000200E0424600DA794206A8FFF7D8FE7B
:100D000006AB93E8070003AB83E8070044F23E001C
:100D10005BEA04010090584604D144F21E012C46BF
:100D20005D460091210C0904014306D10099240479
:100D300044EA15442D041039009104F07F41014329
:100D400006D10099240244EA15642D020839009165
:100D500004F07041014306D10099240144EA15745E
:100D60002D01091F009104F04041014306D1009973
:100D7000A40044EA9574AD00891E009104F000417E
:100D8000084304D100986D196441401E009042460A
:100D90006846002FCDE9014503A902DD00F0E3FE1E
:100DA00001E000F0B8FEBAF1000F04460D4601D094
:100DB00084F0004440F2FF7724F00040284303D041
:100DC000C4F30A50B84212D1FFF7C0FDC0F800903A
:100DD000C4F30A50B8420AD1AE487844D0E90010B2
:100DE000C6E9001004F000410843706069E7C6E9F5
:100DF000005466E72DE9FF4F1F464FF0000A4FF001
:100E0000FF38454691B0D7E90146CDF83CA0FFF741
:100E100099FDC0680168405C1090B96912986D1C1A
:100E20008847396A814688470028F6D1B9F1FF3FE3
:100E30000AD0002E24F4D06411DDB9F12B0F08D0B4
:100E4000B9F12D0F0BD102E0404615B03AE744F45A
:100E50008064B96912986D1C8847761E81466005CA
:100E600004A901D52D2000E02B20002E01F1010B5B
:100E70000DF130088DF810003FDDB9F1690F08D091
:100E8000B9F1490F05D0B9F16E0F02D0B9F14E0F8B
:100E90001CD13B4601A8009580E85002DDE9121202
:100EA0006FF0020004F019FEC11CCED10EE0B9694A
:100EB00012986D1C884781461398761E44F400747E
:100EC00005600F98401C002E0F9016DDB9F1300F11
:100ED000EDD0B9F1780F02D0B9F1580F0DD10F98BC
:100EE00001280AD13B46CDE90054DDE91212001F6A
:100EF000029604F0F0FDC11CA7D1109989453ED19E
:100F000044F0800406E01399681CAAF1010A44F435
:100F100000740860B9696D1C1298761E88473028E5
:100F20008146F0D02BE01099894505D1200603D4E5
:100F3000761E44F0800418E0484602F013FC08B323
:100F4000761E0DF123018B4544F4007408D2A9F1FB
:100F500030000BF8010B200607D5AAF1010003E0D1
:100F6000200602D40AF101008246A00502D5139999
:100F7000681C0860B96912986D1C88478146002E6C
:100F8000D1DC53E0002E51DDB9F1650F02D0B9F18B
:100F9000450F4BD1A00549D5B9696D1C1298761E35
:100FA00024F440748847002E81460CDD2B2804D0A1
:100FB000B9F12D0F07D144F48074B96912986D1CF2
:100FC0008847761E8146E00501D52D2100E02B21C2
:100FD00008F8011BCDF8008021E0761E0DF13901E3
:100FE000884544F400740CD2A9F1300010F0FF00E1
:100FF00088F8000002D10099884509D908F1010854
:1010000006E0E00501D5244801E042F20F70824677
:10101000B96912986D1C8847814613980560002EA7
:1010200004DD484602F09EFB0028D6D1F9691298EB
:101030008847FF2053468BF8000088F80000002006
:101040000A900B9004AA0CA90AA8FFF7D5FDA005E9
:1010500002D46FF00100F8E614F0240F0AD0E00784
:1010600014D13868DDE90A12031D3B600068C0E94D
:1010700000120BE00AA9684602F00EFBE00705D15A
:101080003868009A011D3960006802602846DCE675
:10109000F04E0000E64D0000F1D8FFFF0446AFF32C
:1010A00000802046FFF7CFF84FF0013C50F8042BAA
:1010B00051F8043B9A4221D1A2EB0C03934313EA6B
:1010C000CC1317D150F8042B51F8043B9A4215D198
:1010D000A2EB0C03934313EACC130BD150F8042B6F
:1010E00051F8043B9A4209D1A2EB0C03934313EA53
:1010F000CC13DBD04FF00000704700BFD01A01BA0C
:10110000B1FA81F101F0180122FA01F0CB40C1F1EE
:101110002001DBB2C0B2C01A2CFA01F3D11A9143FC
:1011200011EAC311E6D170472DE9FF4F1F464FF07A
:101130003C0987B04FF00042DDE9141001F10108CD
:10114000DDF858A002EA4050039000200490834646
:10115000054604460590B969461E08988847AAF1D5
:10116000010A0290BAF1000F37DD02982E2815D03F
:10117000102100F012FA00282ADB4FF0010B04992D
:10118000014316D0B9F1000F0BDB4A46C11700F03E
:10119000F1F905430C43A9F1040905E0012005908C
:1011A00007E008B145F0010501200490059800B959
:1011B000361DB969089808F101088847BBF1000F8E
:1011C000AAF1010A0290CDD00999C1F80080C9E7BF
:1011D0000298702808D0502806D0F96908988847E6
:1011E000BBF1000F14D04FE0002002900120BBF1B2
:1011F000000F049009D0B969089808F101088847E0
:10120000AAF10109B9F1000F07DCF96908988847CC
:101210006FF001000BB0BDE8F08F2B2804D02D2813
:101220000CD14FF0FF300490B969089808F101081B
:101230008847A9F10109B9F1000FE6DD411CE4D0AE
:101240000A2100F0AAF90028DFDB029908F1010861
:1012500001EB810100EB41000290B96908988847D1
:101260000A2100F09AF9099AA9F10109B9F1000FD0
:10127000C2F8008001DD0028E7DAF969089888479C
:101280000499029800FB016655EA040004D004F0BA
:101290004041090002D006E0039898E0A40044EA27
:1012A0009574AD00B61E04F00041080002D16D191E
:1012B0006441761E159810F0240F03D04FF00B09EF
:1012C0005C4803E04FF028096FF07D0082465645E8
:1012D00007DAAAEB06018944B9F1410F01DD4FF0AD
:1012E000410901200021A9F1010200F043F9024661
:1012F00028400B462140084301D0012100E0002195
:10130000501E029143F1FF3128402140084301D093
:10131000012000E000200299834651EA0B014FD0E2
:10132000002108464FF00000039900F4400039B155
:1013300000EB80004FF4400100EBD07001EA600048
:101340008015012802DD4FF0FF3000E013D0401C73
:1013500036D0029860B3BBF1000F0CD14A46012091
:10136000002100F007F928402140084301D0012066
:1013700000E00020E0B101204A46002100F0FAF828
:10138000034640190A4661412D1A8C4111D3B9F127
:10139000400F09DD159810F0240F02D0AAF1340691
:1013A00003E0AAF1170600E0761C00254FF0004488
:1013B00006E05B1E42F1FF3220EA030521EA020447
:1013C000CAF10100B04206DA1B49039808430190B4
:1013D000002000900EE0039AC4F3D321E80A0A43E8
:1013E000164940EA44500A433146CDE900026846B6
:1013F00002F0AEF9159810F0240F0BD01598C00725
:1014000015D13868DDE90012031D3B600068C0E9B2
:1014100000120CE002A8694602F03EF91598C007D8
:1014200005D13868029A011D3960006802604046A3
:10143000F0E6000002FCFFFF0000F07F0000F03F3C
:101440002DE9FF4F92461D4685B04FF00041DDE982
:10145000124BDDE914727F1E01EA4B50414940F006
:10146000FF4940EA0108002122F0200049280491A8
:1014700002D04E2828D04CE03BA0012607C88DE8BA
:101480000700A9690698641C88477F1E014606D498
:101490001DF8060018B121F0200181420BD0E96946
:1014A00006988847032E34D0082E32D06FF0010002
:1014B00009B0BDE8F08F761C032E01D0082EE0D1D4
:1014C000601CCAF80000DCE7A9690698641C88471C
:1014D0007F1E2AD420F02000412826D1A969069831
:1014E000641C88477F1E20D420F020004E281CD189
:1014F000A9690698641C88477F1E48F4002849F4AF
:101500008009CAF8004001D4282806D0E969069865
:1015100088475FEACB7012D022E0A9690698641C64
:1015200088477F1E01D4002803DAE96906988847B6
:10153000BCE72928F1D1641CCAF80040E9E71BF098
:10154000240F07D028680499031D2B600068C0E9A8
:10155000001805E02868021D2A600068C0F80090A5
:101560002046A5E70000F07F494E46494E495459B0
:1015700000000000B2F120030AD5C2F1200301FAF5
:1015800002F120FA03F300FA02F041EA0301704786
:1015900000FA03F14FF0000070473A2800D23038CB
:1015A00020F02002412A01D3A2F13700884201D362
:1015B0004FF0FF3070475FEA400C08BF91F0000F1A
:1015C0004FEA8C234FEAC12243EA51514FEA1C50A3
:1015D00018BF00F5F0404FEA300018BF41F000415D
:1015E0005FEA6C5C00F02980BCF1FF3F08BF40F06F
:1015F00080407047130C06BF12044FF0100C4FF0E0
:10160000000C130E04BF12020CF1080C130F04BFE0
:1016100012010CF1040C930F04BF92000CF1020CA8
:10162000D30F04BF52000CF1010C11464FF0000221
:10163000A0F11F00A0EB0C00704711F0004F08BF95
:10164000704731F000413FF4D5AF0B0C06BF0904E1
:101650004FF0100C4FF0000C0B0E04BF09020CF100
:10166000080C0B0F04BF09010CF1040C8B0F04BF15
:1016700089000CF1020CCB0F04BF49000CF1010CE6
:10168000CCF12003A0EB0C0022FA03F302FA0CF2D7
:1016900041EA030100F10100704720F07F4C80EA2D
:1016A000030023F07F47ACEB070303F57C5300F006
:1016B000004003F1FF032DE980494FEA154B09B4BF
:1016C0004FEA144325EA0B4E24EA03480FF204269E
:1016D00006EB132749083E785FEA320203FB0667F0
:1016E000C7F5000707FB06F64FEA54374FEAD64620
:1016F00006F1020607FB066CCCF1005C4FEA1C47C2
:101700002CEA074C07FB06F40CFB06F504EB154628
:101710004FEA961634BF00204FF000404FEAD13711
:1017200006FB07FC4FEA1C4C0CFB0BF7D21B03FB20
:101730000CF761EB07010CFB0EF7B0EB074072EB07
:1017400017420CFB08F734BFA2EB0742B2EB07428B
:1017500061EB17414FEA0C444FEA910706FB07FC87
:101760004FEA1C4C0CFB0BF7B0EBC74072EB573247
:1017700003FB0CF734BFA2EBC742B2EBC74261EBED
:1017800057310CFB0EF7B0EBC70072EB57720CFB36
:1017900008F734BFA2EBC702B2EBC70261EB577187
:1017A000039F4FEA816141EA921104EBCC044FEAB6
:1017B000D1374FEA826206FB07FC42EA90124FEAF9
:1017C00080604FEA1C4C0CFB0BF7D21B03FB0CF7A1
:1017D00061EB07010CFB0EF7B0EB074072EB174211
:1017E0000CFB08F734BFA2EB0742B2EB074261EBF8
:1017F00017414FEA8C554FEA910704EB9C2406FBF6
:1018000007FC4FEA1C4C0CFB0BF7B0EBC74072EB2C
:10181000573203FB0CF734BFA2EBC742B2EBC7420F
:1018200061EB57310CFB0EF7B0EBC70072EB577250
:101830000CFB08F734BFA2EBC702B2EBC70261EBA7
:10184000577115EB4C254FEA816141EA92114FEA3D
:1018500082624FEAD13742EA901206FB07FC44F15C
:1018600000044FEA80604FEA1C4C0CFB0BF7D21BC4
:1018700003FB0CF761EB07010CFB0EF7B0EB074025
:1018800072EB17420CFB08F734BFA2EB0742B2EB36
:10189000074261EB174115EB1C154FEA813141EA14
:1018A00092414FEA823242EA90424FEA80304FEA58
:1018B0000C7644F1000448EA03434EEA0B484FF02B
:1018C000000EB2EB080C71EB030724BF62463946E9
:1018D0004EEB0E0E4FF0000B0018524149414BEBFE
:1018E0000B0BB2EB080C71EB03077BF1000B24BF71
:1018F000624639464EEB0E0E4FF0000B0018524177
:1019000049414BEB0B0BB2EB080C71EB03077BF17E
:10191000000B24BF624639464EEB0E0E51EA020719
:1019200018BF46F0010616EB0E7655F1000254F191
:10193000000103D5BDE88901BDE80088BDE8890143
:10194000BDE80048B619524141EB0101A3F1010382
:10195000704780807F7E7D7C7B7A7978777676751C
:101960007473727171706F6E6E6D6C6C6B6A6A6994
:101970006868676666656464636362616160605F2E
:101980005F5E5E5D5D5C5C5B5B5A5A5959585857A7
:10199000575656555555545453535252525151500F
:1019A00050504F4F4F4E4E4D4D4D4C4C4C4B4B4B62
:1019B0004A4A4A49494948484847474747464646A8
:1019C00045454544444444434343434242424241E3
:1019D0004141000046EA0646A3F570534FEA164619
:1019E00046EA42564FEAD22242EA415210B54FEA45
:1019F000D121A3F1010300F017F820F0004000F11D
:101A0000010C00F0004701EB00501146BCF5006FDF
:101A100040EA070000D210BD02484FF0000140EA42
:101A2000070010BD0000F07F002B26D4770021D0E6
:101A30001CB54FEA370703B44FF010004FF0100108
:101A40004FF000000FBCBDE810400BF1010BBBF1E3
:101A5000010F08BF5FEA170722BF12F1010211F15F
:101A600001014FF0004143F1000300F0004043EA60
:101A700000007047F9D35708DAE746EA064613F143
:101A8000400F4FEA16461FDD13F1200FDFBF16434C
:101A90000A46002120335B42C8D0C3F1200746EA42
:101AA000064602FA07F74FEA164646EA0706C3F16A
:101AB000200722FA03F201FA07F721FA03F14FF0A7
:101AC000000342EA0702B1E746EA020646EA064692
:101AD0004FEA164646EA0106BCBF46EA0646360C01
:101AE0004FF000034FF000024FF000019EE72DE998
:101AF000C048934630B491E8380007C831EA400C3A
:101B000048BF34EA430C03D5FFF7C7FDFFF78CFF4E
:101B1000F0BCBDE800882DE9C048934630B491E898
:101B2000380007C831EA400C48BF34EA430C03D5FB
:101B3000FFF7B3FDFFF74EFFF0BCBDE800882DE9CD
:101B4000C048934630B491E8380007C810F0804F81
:101B500008BF13F0804F03D100F019F8FFF764FFBE
:101B6000F0BCBDE800882DE9C048934630B491E848
:101B7000380007C810F0804F08BF13F0804F03D122
:101B800000F005F8FFF726FFF0BCBDE8008820F064
:101B90007F4780EA030023F07F4C07EB0C03A3F59B
:101BA0007C5300F00040A3F1FE0392F0000F00F020
:101BB000B38095F0000F00F077802DE901494FEADE
:101BC00011404FEA144621EA004800FB06FC24EAD3
:101BD000064708FB06F607FB08F800FB07F718EBBB
:101BE00006484CEB164C4FEA124B18EB07484FEAED
:101BF00015464CEB174022EA0B4E0BFB06FC25EA80
:101C000006470EFB06F607FB0EFE0BFB07F71EEB67
:101C1000064E4CEB164C4FF000061EEB074E4CEBFD
:101C2000174B18EB0B0840F1000018EB0E0B58EBAC
:101C3000000840F100008F1A4FF000013CBFC9437B
:101C4000661B14BFB5EB040C00213CBFC943F61B57
:101C50004FEA17444EEA8E0E27EA04454FEA1C4726
:101C600004FB07622CEA074C05FB07F70CFB05F6A3
:101C700004FB0CFC16EB074642EB174216EB0C4636
:101C800042EB1C421BEB060658EB0202414146EABE
:101C90009E0601D5BDE80189B619524141EB01010B
:101CA000A3F10103BDE801894FEA14454FEA11474A
:101CB00024EA054621EA074C05FB07F406FB07F773
:101CC0000CFB06F105FB0CFC11EB074144EB174440
:101CD0004FEA124711EB0C4144EB1C4422EA074C3B
:101CE00005FB07F206FB07F70CFB06F605FB0CFCF1
:101CF00016EB074642EB174216EB0C4642EB1C452F
:101D00006A1854F1000148BF7047B619524141EBBF
:101D10000101A3F10103704795F0000F37D04FEA9E
:101D200011424FEA144721EA024624EA074C02FB1B
:101D300007F106FB07F70CFB06F402FB0CFC14EBA7
:101D4000074441EB17414FEA154714EB0C4441EBB4
:101D50001C4125EA074C02FB07F506FB07F70CFBC5
:101D600006F602FB0CFC16EB074645EB174516EB97
:101D70000C4645EB1C42121951F1000148BF704757
:101D8000B619524141EB0101A3F1010370474FEA3B
:101D900014454FEA114724EA054621EA074C05FBA2
:101DA00007F106FB07F70CFB06F24FF0000605FBF8
:101DB0000CFC12EB074241EB174112EB0C4251EBCA
:101DC0001C4148BF7047921841EB0101A3F1010388
:101DD000704700BFFEE7704710B513480068401C0D
:101DE000114908600846006810490968884218D1FE
:101DF00001200F490860801E0B49086000200B4934
:101E0000086000F05BFC00200A4908609FED0A0AA8
:101E10000A4880ED000A20210948FEF7BAFA01209D
:101E200010BD0020FCE7000004000020000000209E
:101E3000B08240420C00002000000000440000205E
:101E4000CC00002010B540210548FEF7A2FA47F269
:101E500030504FF0804148620249086010BD0000D8
:101E6000A40400202408004000B589B001210846E0
:101E700000F090FB0121084600F07CFB01220021CC
:101E8000264800F013FA01221146244800F00EFA09
:101E90000320079002208DF8200003208DF82100F8
:101EA00001208DF822008DF8230007A91B4800F0BF
:101EB000B5F94FF6FF7005900020ADF81000ADF8B1
:101EC0001800ADF8120004A94FF0804001F0CAF8E4
:101ED00000231A4603214FF0804000F0F7FE01A8CE
:101EE00000F05DFF0A20ADF80C0001A9400700F0EA
:101EF0001FFF0121880700F0D7FE0122114690073D
:101F000000F056FF47F230504FF080414862012107
:101F1000880700F0CFFE09B000BD000000000240BD
:101F200010B504460B4884819FED0B0A80ED010A31
:101F30009FED090A80ED020A9FED080A80ED000A74
:101F4000FFF792FF00F00CF8FFF77CFF204600F04F
:101F500077FE10BDE404002000000744CDCC5C40B7
:101F600000B589B00121042000F014FB01210220FA
:101F700000F000FB02220621254800F097F902221A
:101F80000721234800F092F9C020079002208DF825
:101F9000200003208DF8210001208DF822008DF80B
:101FA000230007A91A4800F039F94FF6FF70059091
:101FB0000020ADF81000ADF81800ADF8120004A92B
:101FC000144801F04FF800231A460321114800F08D
:101FD0007DFE01A800F0E3FE0A20ADF80C0001A987
:101FE0000C4800F0A5FE01210A4800F05DFE012228
:101FF0001146084800F0DCFE47F230500549243114
:1020000008600121034800F055FE09B000BD000042
:10201000000402400008004070B505460C467648B2
:102020000068401C74490860744800680968884268
:1020300070D10C2D6FD2DFE805F006182A3E4F5EF6
:102040006F81DBA0AEC800EE104AB8EEC00A03F004
:1020500077F840B100F032FB68480068401C6749DF
:102060000860012070BD0020FCE700EE104AB8EEC9
:10207000C00A02F05DFF40B100F020FB5F4800683D
:10208000401C5E4908600120ECE70020EAE70120DF
:102090005B4908605B4804605B480068A04208D167
:1020A00000F00CFB55480068401C544908600120B2
:1020B000D8E70020D6E702F00FFF58B15348006878
:1020C00040B100F0FBFA4D480068401C4B490860E5
:1020D0000120C7E70020C5E7204601F0ADFB40B175
:1020E00000F0ECFA45480068401C444908600120B3
:1020F000B8E70020B6E7204601F0A2FB40B100F0AF
:10210000DDFA3E480068401C3C4908600120A9E710
:102110000020A7E76EE06BE000EE104AB8EEC00AC0
:1021200003F086F940B100F0C9FA34480068401C59
:1021300032490860012095E7002093E7344890ED8C
:10214000000AF8EEC01A90ED000AB8EEC01A00EED0
:10215000104AF8EEC00A00EE104AB8EEC00A01F0CC
:102160000DFC40B100F0AAFA24480068401C234945
:102170000860012076E7002074E703F057F940B1CA
:1021800000F09CFA1D480068401C1C4908600120B2
:1021900068E7002066E71F4890ED000AF7EE000AA6
:1021A000B4EE600AF1EE10FA0DD100F087FA134890
:1021B0000068401C114908609FED170A154880ED22
:1021C000000A01204EE700204CE702F097FF68B1BB
:1021D00000F074FA09480068401C084908609FED47
:1021E0000E0A0C4880ED000A01203BE7002039E789
:1021F000002037E7002035E7040000200000002021
:1022000090000020940000208C0000200C00002092
:10221000240000204400002000000000F0B50A4621
:1022200000210023002400BF3DE0012505FA01F351
:10223000156805EA03049C4234D105684F00032663
:10224000BE40B543056015794E00B540066835437C
:1022500005601579012D02D01579022D16D18568FA
:102260004F000326BE40B543856055794E00B5400A
:10227000866835438560456801268E40B5434560D4
:10228000456896798E40B6B235434560C5684F00C3
:102290000326BE40B543C560D5794E00B540C6683B
:1022A0003543C560491C1029BFD3F0BDF0B50023EC
:1022B00000244D07ED0E02FA05F3CE1000F12005C3
:1022C00055F826504E07F70E0F26BE40B543CF10E7
:1022D00000F1200646F82750CE1000F1200555F8F1
:1022E000265045EA0304CE1000F1200545F82640AB
:1022F000F0BD00001CB50121084600F03BF90220AA
:102300008DF805002020009000208DF804000220A8
:102310008DF8070069460248FFF780FF1CBD0000EA
:102320000000024000BFFEE71CB50121042000F0C0
:1023300021F94FF40050009001208DF80400002096
:102340008DF8060003208DF8050001208DF80700A8
:1023500069460348FFF762FF0020024908601CBD80
:1023600000080240B402414210B58AB00446012080
:10237000384908600121022000F0FCF802208DF8A5
:10238000240000208DF826003320089000208DF8CE
:10239000270003208DF8250008A92F48FFF73EFFEE
:1023A000022204212C48FFF781FF022205212A483E
:1023B000FFF77CFF022200212748FFF777FF022268
:1023C00001212548FFF772FF0121022000F0E2F809
:1023D0000020ADF81C00ADF816004FF4FA7090FB29
:1023E000F4F0401E80B2ADF8140000208DF81E00FD
:1023F0006320069005A9194800F034FE6020ADF86E
:1024000000000120ADF802000420ADF80400002017
:10241000ADF80C00ADF80E004FF48070ADF8100070
:102420000020ADF8120069460C4800F0CBFC69466C
:102430000A4800F005FD6946084800F053FD69466A
:10244000064800F09FFD0121044800F033FC0AB06B
:1024500010BD00009800002000040240000400406D
:1024600000BFFEE77047000070B5002100230F2277
:10247000C4781CB3174C246804F4E064C4F5E06429
:10248000C4F30721C1F10404E3B20A4144789C403B
:10249000E1B28478144021430C07210E0E4C0578DC
:1024A0006155047804F01F050124AC4005786D11D6
:1024B000AD0005F1E025C5F8004109E0047804F01D
:1024C0001F050124AC40054D0678761145F82640DD
:1024D00070BD00000CED00E000E400E080E100E0F1
:1024E00010B50748006810B901F0D4FA01E002F015
:1024F000FBFAFFF771FC4FF0FF300249086010BD96
:10250000080000200400002070B5002403251448B2
:10251000006801281CD1002608E012480068012844
:1025200000D1641C642001F045F9761CAE42F4DB56
:102530000D480068012803D1AC4201D10B49086065
:102540000948006850B94CB900200849086005E006
:102550000348006810B902200449086070BD0000FB
:102560009000002014024042940000208C000020C3
:102570007047000029B1064A12680243044B1A60F2
:1025800004E0034A12688243014B1A60704700005E
:102590003038024029B1064A12680243044B1A60DF
:1025A00004E0034A12688243014B1A60704700003E
:1025B0004038024029B1064A12680243044B1A60AF
:1025C00004E0034A12688243014B1A60704700001E
:1025D00044380240F0B500210022002402250026E4
:1025E0000223324F3F6807F00C0121B1042905D0C6
:1025F000082937D105E02E4F076036E02D4F0760E0
:1026000033E02A4F3F1F3F68C7F38056274F3F1FD5
:102610003F6807F03F036EB1264FB7FBF3F7DFF8D3
:102620008CC0ACF1040CDCF800C0CCF3881C07FBB8
:102630000CF40CE01E4FB7FBF3F7DFF870C0ACF101
:10264000040CDCF800C0CCF3881C07FB0CF4174F1B
:102650003F1F3F68C7F301477F1C7D00B4FBF5F7C0
:10266000076002E0124F076000BF00BF0F4F3F68D6
:1026700007F0F0010909104F7A5C0768D7404760FE
:102680000A4F3F6807F4E051890A0B4F7A5C4768AC
:10269000D7408760054F3F6807F46041490B064FFC
:1026A0007A5C4768D740C760F0BD00000838024038
:1026B0000024F40000127A009C00002010B50020D5
:1026C0000F49086002200F4908600F490860202167
:1026D0000E48FDF75EFE20210D48FDF75AFE202131
:1026E0000C48FDF756FE01200B49086001F0C4F9C3
:1026F00001F0BEFF02F078FE02F0E2FE10BD000025
:10270000900000208C00002094000020AC000020ED
:10271000EC0000200C010020100000201CB501215D
:102720000220FFF727FF4FF44050009001208DF862
:10273000040000208DF8060003208DF8050001201C
:102740008DF8070069460548FFF768FD0120044938
:10275000086000200349C1F8B4021CBD0004024017
:10276000B0824042008040425048006847F23051F9
:10277000081A4F49886008468068886047F23050E0
:102780004A4908604A4840684949896808444849B4
:102790004860084690ED020AB8EEC00A4548D0ED00
:1027A000010A80EE201A9FED440A21EE000ADFEDB7
:1027B000430A20EE200AD0ED000A60EE200A80894C
:1027C00000EE100AB8EE400A80EE801A084680ED4E
:1027D000091A384890ED000ADFED390A60EE200A48
:1027E000084690ED010AB8EEC00A20EE800A314892
:1027F000D0ED010A80EE201A084680ED0A1A4FF04B
:102800008040406A47F23051081A29494861084619
:1028100040694042486147F230504FF08041486281
:10282000234800692249496908442149086121482F
:1028300090ED000ADFED220A60EE200A084690EDD6
:10284000040AB8EEC00A20EE800A1A48D0ED020A47
:1028500080EE201A084690ED0D0A71EE400A1548E8
:10286000808900EE100AB8EE400A80EE801A9FEDD3
:10287000120A21EE000A084680ED0C0A0D4890ED80
:10288000000ADFED0F0A60EE200A084690ED040A08
:10289000B8EEC00A20EE800A0648D0ED020A80EEAB
:1028A000201A084680ED0D1A7047000024080040E9
:1028B000A4040020E40400200000FA44DA0F494098
:1028C000DA0FC940704700002248006840F080508D
:1028D000204908602048006840F440401E490860D4
:1028E0001C48383800681B493839086008460068B9
:1028F00008600846006840F4805008601748091FC7
:102900000860081F006840F08070091F086000BF61
:1029100010484038006800F000700028F8D040F2FD
:1029200002700F4908600B483838006820F0030037
:102930000849383908600846006840F0020008601D
:1029400000BF04483838006800F00C000828F8D1AF
:1029500070470000403802400070004010640107DA
:10296000003C0240042808D14FF0E021096941F001
:1029700004014FF0E022116107E04FF0E021096906
:1029800021F004014FF0E022116170477047000010
:1029900010B51548006840F47000134908601348EA
:1029A000006840F001001149086000200F4908311B
:1029B00008600E4800680E4908400C4908600D4840
:1029C000091D0860081F006820F48020091F0860A6
:1029D000002006490C310860FFF776FF4FF00060D9
:1029E00001498039086010BD88ED00E000380240E0
:1029F000FFFFF6FE10300024F0B50C46154600210E
:102A00000022068C4FF6FE773E400684018B028C36
:102A10004FF60C7631407E1C06EA03162E433143F6
:102A20004FF6F576324044F00106324301830284CA
:102A3000F0BDF0B50C461546002100220026078C9B
:102A40004FF6EF7C07EA0C070784018B028C4FF6E8
:102A5000FF7707EA041640F6FF4739404FF6FF7745
:102A600007EA033739434FF6FF7707EA052739436B
:102A70004FF65F773A4046F010073A4301830284ED
:102A8000F0BDF0B50C461546002100220026078C4B
:102A90004FF6FF6C07EA0C070784818B028C4FF618
:102AA000FF7707EA04264FF60C7739404FF6FF7799
:102AB00007EA03172F4339434FF2FF573A4046F4D2
:102AC00080773A4381830284F0BDF0B50C46154609
:102AD000002100220026078C4EF6FF7C07EA0C0737
:102AE0000784818B028C4FF6FF7707EA043640F6A5
:102AF000FF4739404FF6FF7707EA052739434FF67E
:102B0000FF7707EA0337394345F6FF773A4046F443
:102B100080573A4381830284F0BD000010B510480D
:102B200090ED000ADFED0F0AB4EEE00AF1EE10FAC4
:102B300012DD90ED000ADFED0C0AB4EEE00AF1EED2
:102B400010FA09D2DFED090A9FED080A01F000FD35
:102B500003200749086001E0FFF7C2FC10BD000038
:102B600064040020000096430000AF430000000012
:102B7000800000201FB5044601214804FFF71AFD1C
:102B800004EB84000121C1EB4000029042F20F707F
:102B9000ADF804000020ADF80C00ADF8060001A966
:102BA0000D4800F05FFA012211460B4800F000F9D1
:102BB00019208DF8000000208DF8010001208DF80B
:102BC00002008DF803006846FFF74EFC0121024821
:102BD00000F070F81FBD0000004401407047000085
:102BE00010B50121054800F092F828B101210348F1
:102BF00000F05DF8FFF7B8FD10BD00000040014097
:102C000010B50121054800F082F828B101210348E0
:102C100000F04DF8FFF7E2FF10BD00000048014052
:102C200010B50121054800F072F828B101210348D0
:102C300000F03DF8FFF772FF10BD000000440140B6
:102C40001FB5044601210804FFF7B4FC04EB84001F
:102C50000121C1EB4000029042F20F70ADF8040078
:102C60000020ADF80C00ADF8060001A90D4800F0F9
:102C7000F9F9012211460B4800F09AF818208DF856
:102C8000000001208DF8010003208DF802000120D2
:102C90008DF803006846FFF7E7FB0121014800F0CB
:102CA00009F81FBD00400140CA4302827047CA4371
:102CB0000282704721B1028842F00102028004E0E2
:102CC00002884FF6FE731A4002807047F0B50C463A
:102CD00015461E460021002200230189028B038C29
:102CE0004FF6F877394021434FF6FC473A4040F21F
:102CF00001173A434FF6DD773B404FF6FF7707EA7F
:102D000006172F433B43018102830384F0BD30B596
:102D10000246002000230024158A05EA0103958954
:102D200005EA010413B10CB1012000E0002030BD20
:102D300070B505460C46208850B92389A288618861
:102D40002846FFF759FEE188284600F05FF925E0A4
:102D5000208804280AD12389A28861882846FFF7A1
:102D600068FEE188284600F05AF917E02088082814
:102D70000AD12389A28861882846FFF782FEE1886C
:102D8000284600F059F909E02389A288618828467D
:102D9000FFF79BFEE188284600F057F970BD00213F
:102DA00001804180012181800021C1800181704723
:102DB0001AB183890B43838102E083898B4383812A
:102DC0007047000070B5002400220023058C4FF6E8
:102DD000FE7635400584028C8388048B4FF68F7510
:102DE0002C40B51E2C400D882C43751E2A408D8921
:102DF0002A434D882A43104DA84202D00F4DA842C5
:102E000013D14FF6F7752A40CD892A434FF6FB754B
:102E10002A408D882A434FF6FF652B404FF6FF5519
:102E20002B400D8A2B434D8A2B43838004838D686E
:102E30004563028470BD00000000014000040140B1
:102E400070B5002400220023058C4FF6EF76354044
:102E50000584028C8388048B48F6FF752C404FF65E
:102E6000FF452C400D884FF6FF7606EA05252C43DA
:102E70004FF6DF752A408D8906EA05152A434D88ED
:102E800006EA05152A43154DA84202D0144DA84262
:102E90001DD14FF67F752A40CD894FF6FF7606EAA1
:102EA00005152A434FF6BF752A408D8806EA051599
:102EB0002A434FF6FF352B404FF2FF752B400D8A0A
:102EC00006EA85052B434D8A06EA85052B43838058
:102ED00004838D688563028470BD0000000001409A
:102EE0000004014070B5002400220023058C4FF639
:102EF000FF6635400584028C8388848B4FF68F757E
:102F00002C404FF6FC752C400D882C434FF6FF5596
:102F10002A408D894FF6FF7606EA05252A434D881B
:102F200006EA05252A43154DA84202D0144DA842B1
:102F30001DD14FF2FF752A40CD894FF6FF7606EA84
:102F400005252A434FF6FF352A408D8806EA0525D8
:102F50002A434EF6FF752B404DF6FF752B400D8A28
:102F600006EA05152B434D8A06EA05152B43838097
:102F700084838D68C563028470BD00000000014039
:102F80000004014070B5002200230024058C4EF699
:102F9000FF7635400584038C8488828B48F6FF7564
:102FA0002A404FF6FF452A400D884FF6FF7606EA85
:102FB00005252A434DF6FF752B408D8906EA053518
:102FC0002B434D8806EA05352B430A4DA84202D013
:102FD000094DA84208D14BF6FF752C400D8A4FF6DB
:102FE000FF7606EA85152C43848082838D6805640C
:102FF000038470BD0000014000040140416370473C
:1030000081637047C163704701647047028B4FF65C
:10301000F3731A400283028B0A4302837047028BC8
:103020004FF2FF331A400283028B4FF6FF7303EA1D
:1030300001231A4302837047828B4FF6F3731A40C1
:103040008283828B0A4382837047828B4FF2FF33E5
:103050001A408283828B4FF6FF7303EA01231A43DF
:103060008283704700220288184B98420ED0184B7A
:1030700098420BD0B0F1804F08D0164B984205D043
:10308000154B984202D0154B984204D14FF68F73DE
:103090001A404B881A43124B984207D0114B984262
:1030A00004D04FF6FF431A400B891A4302804B6845
:1030B000C3620B880385054B984202D0044B9842AB
:1030C00001D18B7A0386012383827047000001407F
:1030D000000401400004004000080040000C0040D3
:1030E000001000400014004010B540F22551164871
:1030F00000F028F930B3144800F0DEF9C4B2262CF1
:1031000002D101201149086010480068012807D148
:103110000F4801880088401C0D4A10800D48445417
:103120000A48006801280DD12A2C0BD10223084837
:1031300002880949074801F097FC0020034908600C
:103140000349088010BD000000100140400000202D
:103150004C0000208C0300204400002010B54D4896
:103160000068401C4B490860084600680A2808DDD2
:1031700049480068C0434949C1F8B40200204549A4
:10318000086040F22551464800F0DCF800287DD068
:10319000434800F091F9C4B2262C02D101204149E4
:1031A000086040480068012807D13F48018800882E
:1031B000401C3D4A10803D4844543A48006801286C
:1031C00067D12A2C65D1032337480288384937480C
:1031D00001F04AFC00203349086033490880344834
:1031E00090ED000ABDEEC00A324880ED000A00688A
:1031F0000A2190FBF1F201FB12002F4908602D48D3
:1032000000680968401A0A2190FBF1F0294908601A
:10321000084600680A2190FBF1F201FB12002749E1
:103220000860244800680968401A0A2190FBF1F000
:1032300020490860084600680A2190FBF1F201FB72
:1032400012001F4908601B4800680968401A0A21DB
:1032500090FBF1F017490860084600680A2190FBCE
:10326000F1F201FB12001749086012480068096872
:10327000401A0A2190FBF1F00E49086008460068E8
:103280000A2190FBF1F201FB120000E001E00E497F
:10329000086010BD58000020B402414200004142C5
:1032A000004400405400002050000020C0030020D3
:1032B000F4030020700000206C0000206800002053
:1032C00064000020600000205C00002010B512485F
:1032D00000F0F2F8C4B2642C02D101200F4908605A
:1032E0000E480068012807D10D4801880088401C5D
:1032F0000B4A10800B4844540848006801280AD142
:103300006D2C08D10849074800F0E1F80020034976
:1033100008600349088010BD0014014078000020B7
:1033200074000020000400206404002021B1828980
:1033300042F40052828104E082894DF6FF731A4004
:103340008281704770B502460024002300250020CA
:1033500040F66A16B14200D100BFC1F3421501F038
:103360001F03012606FA03F3012D02D1968933408B
:1033700006E0022D02D1168A334001E0968A3340DE
:103380000C12012606FA04F41688344013B10CB16D
:10339000012000E0002070BDF0B5034600240026A7
:1033A0000025002040F66A17B94200D100BF184638
:1033B000C1F3421401F01F06012707FA06F5012C9C
:1033C00001D10C3004E0022C01D1103000E01430A7
:1033D0001AB107682F43076002E00768AF43076030
:1033E000F0BD00002DE9FF4705460E460024A1462A
:1033F00000BFA046B08900B100BF2C8A24F440541D
:10340000F08804432C82AC8941F20C608443B0887C
:1034100031890843718908430443AC81AC8A24F4A0
:103420004074B0890443AC826846FFF7D3F8204863
:10343000854202D01F48854202D1DDF80C9001E0A0
:10344000DDF80890A88900F4004040B109EBC900FC
:1034500000EB091031684900B0FBF1F707E009EB18
:10346000C90000EB091031688900B0FBF1F7642056
:10347000B7FBF0F004012009642101FB1078A88952
:1034800000F4004040B1322000EBC800B0FBF1F086
:1034900000F00700044308E0322000EB081064212C
:1034A000B0FBF1F000F00F0004432C81BDE8FF8772
:1034B000001001400014014001468888C0F3080054
:1034C0007047C1F308028280704700BFFEE770B505
:1034D0002DED028B86B004460D46002600200AE042
:1034E000215C302906DB215C392903DC215C01AA3F
:1034F0009155761C401C215C6D29F1D101A800F08A
:1035000027F8B0EE408AF0EE608A51EC180B02F01A
:1035100011F8286006B0BDEC028B70BD03B40198B1
:103520004100009850EAC12018BF04204A0D18BF7E
:1035300040F0010040F2FF72B2EB515F08BF40F073
:103540000200012808BF052002B0704700000000FB
:1035500030B583B00446FCF747FF9FED090B0546E5
:103560008DED000B002221466846FDF7B9F928468B
:10357000FCF73FFF9DED000B03B030BD00000000E5
:10358000000000000000000030B540F2FF742DED97
:10359000048BF0EE608A18EE901A85B0B0EE408A87
:1035A0009FED2B9B05468DED008B34EA115147D0E2
:1035B00053EC192B51EC180B02F002F840D02A46BC
:1035C00051EC180B02F057FA41EC180B18EE900A68
:1035D0008DED008B34EA10501CD053EC192B51ECBC
:1035E000180B01F0EDFF2BD10220FCF702FF00F0D9
:1035F00043F810EE901A18EE900A8DED020B8DED47
:10360000008B61F31E0003909DED020B05B0BDEC35
:10361000048B30BD0220FCF7ECFE00F01DF810EE2C
:10362000901A18EE900A8DED020B8DED008B61F370
:103630001E0003909DED020B05B0BDEC048B30BD68
:1036400005B0B0EE480AF0EE680ABDEC048B30BD60
:1036500000000000000000009FED050B10B553ECCA
:10366000102B51EC100B02F023F841EC100B10BDA5
:1036700000000000000000709FED050B10B553EC3A
:10368000102B51EC100B02F013F841EC100B10BD95
:10369000000000000000001030B504462DED048B42
:1036A00081B06A4691ED008B51EC180B00F020F9C7
:1036B00000989FED239B7E300090002821DC53EC86
:1036C000192B51EC180B01F07BFF1AD0002140F6AA
:1036D00008004FF00000054651EC180B01F02AFFDE
:1036E00008EE100A40F6080005EA00014FF000005D
:1036F000B5EEC08AF1EE10FA04BF0220FCF779FEA5
:1037000017E00098FF280EDB0220FCF772FE53EC56
:10371000192B51EC180B02F0C9F88CBF9FED0A8AE7
:103720009FED0A8A05E051EC180B01F003FF08EE4B
:10373000100A84ED008A01B0BDEC048B30BD00009E
:103740000000000000000000000080FF0000807FFB
:1037500010B5044690ED000B0846FFF715FF84ED09
:10376000000B10BD30380A2801D20120704700201C
:10377000704700BF7047000010B504466FF00400AA
:10378000FFF7F0F8E11704EB5171C1F3C701074AE5
:1037900011701046007800EB4001C1EBC0104FF6ED
:1037A000FF7101EAC0000249088010BD3800002006
:1037B0003A00002070B504464FF4077094FBF0F017
:1037C000C6B24FF4077094FBF0F100FB114085B2D4
:1037D00005E04FF4077000F009F8701EC6B2002E25
:1037E000F7D115B1284600F001F870BD0146114A25
:1037F00012884A434FF0E0235A6100229A611A4628
:10380000126942F001021A6100BF4FF0E022106914
:1038100000F001021AB100F48032002AF5D04FF016
:10382000E022126922F001024FF0E0231A61002227
:103830009A6170473A00002001460120704700005D
:1038400070B504461B480068022805D11A48006874
:1038500010B11A48006808B9002070BD1648006809
:10386000461E16480068451E154850F82600401CA4
:10387000134941F82600134850F82500401C11490F
:1038800041F825000E4801F01BFB502810DD0C48C4
:1038900000F00AFD401C611E0B4A42F82100094855
:1038A00000F002FD401C084941F824000120D4E743
:1038B0000020D2E7640000205C00002060000020AF
:1038C000EC0000200C010020CC00002070B5044664
:1038D0000D46E1B20548FFF7F4FD00BF034800883C
:1038E00000F080000028F9D0204670BD0010014093
:1038F00010B582B01446CDE900010023009A236080
:10390000194B21F0004098422ADA024328D0B0F542
:10391000801FA8BF226810DA9FED150B53EC102B07
:103920009DED000B51EC100B01F0C2FECDE9000142
:103930006FF0350221F0004022600F4B6FF31E51F3
:1039400003EB20501044206041F0FF5040F0005045
:1039500001909DED000B00BF02B051EC100B10BDAB
:103960009DED000BF8E700000000F07F0000000074
:10397000000000000000504302FCFFFF10B52DEDD9
:10398000048BB0EE408AF0EE609AF0EE418AB0EE21
:10399000619A9FED350A354880ED000AC0ED0C8A2A
:1039A000B1EE680A80ED0D0A80ED088A304890ED8E
:1039B0000A0A2E4880ED090A9FED2B0A2D4880ED5A
:1039C000000A80ED0C9AB1EE490A80ED0D0AC0EDB7
:1039D000089A274890ED0D0A264880ED090AB5EEB1
:1039E000C08AF1EE10FA04DDB2EE000A28EE000AF9
:1039F00005E0B1EE480AF2EE000A20EE200ABDEE24
:103A0000C00A1A4880ED100AB5EEC08AF1EE10FA2D
:103A100004DDB2EE000A28EE000A05E0B1EE480A25
:103A2000F2EE000A20EE200ABDEEC00A114880ED39
:103A3000100A0E4800F0A0FE0E4800F09DFE0D4852
:103A400090ED0B1AF0EE410A084890ED0B1AB0EE1B
:103A5000410A00F07DFD0548806B0649896B0840EE
:103A6000BDEC048B10BD00003333333FC401002094
:103A7000A40400201002002010B500F0F9FD034856
:103A800000F088FE024800F085FE10BDC401002051
:103A90001002002010B500210320FEF7BDFA28B166
:103AA0000020FE4908600120FD4908600121022034
:103AB000FEF7B2FAFB480068012856D10221002027
:103AC000FEF7AAFA00210620FEF7A6FA6FF05901C8
:103AD0000120FEF7A1FA00210620FEF79DFA03213E
:103AE0000020FEF799FA30B10120EC49091D086069
:103AF0000220EB49086000210620FEF78DFA002124
:103B00000220FEF789FA18B10020E449091D086077
:103B1000B4210120FEF780FA00210620FEF77CFA8E
:103B200002210020FEF778FA00210620FEF774FA41
:103B30005A210120FEF770FA00210620FEF76CFAE8
:103B400003210020FEF768FA10B10120D349086074
:103B500000210620FEF760FAB4210120FEF75CFA8E
:103B600000210620FEF758FA5EE3CE4800680228DE
:103B700056D102210020FEF74FFA00210620FEF761
:103B80004BFA5A210120FEF747FA00210620FEF7E2
:103B900043FA03210020FEF73FFA30B10120BF496C
:103BA000091D08600220BE49086000210620FEF7BA
:103BB00033FA00210220FEF72FFA18B10020B7498E
:103BC000091D0860B4210120FEF726FA0021062015
:103BD000FEF722FA02210020FEF71EFA002106203D
:103BE000FEF71AFA6FF059010120FEF715FA0021CD
:103BF0000620FEF711FA03210020FEF70DFA10B19E
:103C00000120A649086000210620FEF705FAB4212C
:103C10000120FEF701FA00210620FEF7FDF903E37B
:103C200004210020FEF7F8F900210620FEF7F4F940
:103C300005210020FEF7F0F900210620FEF7ECF93F
:103C400001210520FEF7E8F99748006895490968C1
:103C500088425ED102210020FEF7DEF90021062015
:103C6000FEF7DAF96FF059010120FEF7D5F90021CE
:103C70000620FEF7D1F903210020FEF7CDF930B17F
:103C800001208649091D086002208549086000213D
:103C90000620FEF7C1F900210220FEF7BDF938B178
:103CA00000207E49091D0860B7EE000A00F082FE80
:103CB000B4210120FEF7B0F900210620FEF7ACF98F
:103CC00002210020FEF7A8F900210620FEF7A4F942
:103CD0005A210120FEF7A0F900210620FEF79CF9E9
:103CE00003210020FEF798F930B101206B490860EC
:103CF000B7EE000A00F05EFE00210620FEF78CF908
:103D0000B4210120FEF788F900210620FEF784F98E
:103D10008AE2654840686349096888425ED10221A9
:103D20000020FEF779F900210620FEF775F95A21E7
:103D30000120FEF771F900210620FEF76DF903213D
:103D40000020FEF769F930B101205449091D0860CF
:103D500002205349086000210620FEF75DF900218A
:103D60000220FEF759F938B100204C49091D0860BE
:103D7000B7EE000A00F01EFEB4210120FEF74CF958
:103D800000210620FEF748F902210020FEF744F941
:103D900000210620FEF740F96FF059010120FEF7DF
:103DA0003BF900210620FEF737F903210020FEF73A
:103DB00033F930B1012039490860B7EE000A00F04C
:103DC000F9FD00210620FEF727F9B4210120FEF7B6
:103DD00023F900210620FEF71FF925E20621002025
:103DE000FEF71AF96FF059010120FEF715F90021CD
:103DF0000620FEF711F901210020FEF70DF9002140
:103E00000620FEF709F905210020FEF705F900213B
:103E10000620FEF701F903210520FEF7FDF82248F0
:103E2000806820490968884278D102210020FEF785
:103E3000F3F800210620FEF7EFF86FF0590101209A
:103E4000FEF7EAF800210620FEF7E6F8032100203D
:103E5000FEF7E2F830B101201049091D0860022088
:103E60000F49086000210620FEF7D6F80021022045
:103E7000FEF7D2F838B100200849091D0860B7EEF6
:103E8000000A00F097FDB4210120FEF7C5F80021DB
:103E90000620FEF7C1F80221002007E0B082404270
:103EA000800000200C000020CC000020FEF7B4F8B9
:103EB00000210620FEF7B0F85A210120FEF7ACF8E9
:103EC00000210620FEF7A8F802210020FEF7A4F842
:103ED00000210620FEF7A0F85A210120FEF79CF8E9
:103EE00000210620FEF798F803210020FEF794F841
:103EF00030B10120CD490860B7EE000A00F05AFD4C
:103F000000210620FEF788F8B4210120FEF784F88E
:103F100000210620FEF780F886E1FFE7C448C0686C
:103F2000C449096888426FD102210020FEF774F865
:103F300000210620FEF770F85A210120FEF76CF8E8
:103F400000210620FEF768F803210020FEF764F840
:103F500030B10120B549091D08600220B64908604A
:103F600000210620FEF758F800210220FEF754F841
:103F700038B10020AD49091D0860B7EE000A00F015
:103F800019FDB4210120FEF747F800210620FEF7B5
:103F900043F802210020FEF73FF800210620FEF73B
:103FA0003BF86FF059010120FEF736F8002106209A
:103FB000FEF732F802210020FEF72EF8002106203D
:103FC000FEF72AF85A210120FEF726F800210620E4
:103FD000FEF722F803210020FEF71EF830B1012081
:103FE00092490860B7EE000A00F0E4FC00210620C8
:103FF000FEF712F8B4210120FEF70EF8002106208A
:10400000FEF70AF810E1FFE7B4210120FEF704F8FB
:1040100000210620FEF700F802210020FDF7FCFF3A
:1040200000210620FDF7F8FF01210020FDF7F4FF35
:1040300000210620FDF7F0FF05210020FDF7ECFF31
:1040400000210620FDF7E8FF05210846FDF7E4FF03
:104050007748006977490968884270D102210020B9
:10406000FDF7DAFF00210620FDF7D6FF6FF05901BA
:104070000120FDF7D1FF00210620FDF7CDFF032130
:104080000020FDF7C9FF30B101206849091D086013
:1040900002206949086000210620FDF7BDFF0021CC
:1040A0000220FDF7B9FF38B100206049091D086002
:1040B000B7EE000A00F07EFCB4210120FDF7ACFF52
:1040C00000210620FDF7A8FF02210020FDF7A4FF34
:1040D00000210620FDF7A0FF5A210120FDF79CFFDB
:1040E00000210620FDF798FF02210020FDF794FF34
:1040F00000210620FDF790FF6FF059010120FDF728
:104100008BFF00210620FDF787FF03210020FDF72C
:1041100083FF30B1012045490860B7EE000A00F086
:1041200049FC00210620FDF777FFB4210120FDF7AF
:1041300073FF00210620FDF76FFF75E0FFE73C48A5
:1041400040693C49096888426ED102210020FDF790
:1041500063FF00210620FDF75FFF5A210120FDF7D4
:104160005BFF00210620FDF757FF03210020FDF72C
:1041700053FF30B101202D49091D086002202E494E
:10418000086000210620FDF747FF00210220FDF70F
:1041900043FF38B100202549091D0860B7EE000A29
:1041A00000F008FCB4210120FDF736FF00210620B5
:1041B000FDF732FF02210020FDF72EFF002106202F
:1041C000FDF72AFF6FF059010120FDF725FF0021BF
:1041D0000620FDF721FF02210020FDF71DFF002131
:1041E0000620FDF719FF6FF059010120FDF714FFBC
:1041F00000210620FDF710FF03210020FDF70CFF32
:1042000030B1012009490860B7EE000A00F0D2FB86
:1042100000210620FDF700FFB4210120FDF7FCFE80
:1042200000210620FDF7F8FE10BD0000B0824042DC
:10423000CC0000200C000020800000206420FFF74C
:104240009BFA0120FEF790F84FF4E13000F0FEFEFB
:104250004FF4165000F0A4FEFEF760FAFEF764F883
:10426000FEF748F80A20FDF75BFE0F20FEF782FC00
:1042700011E0052008490860002008490860FEF7A1
:1042800043F907480068C0430649C1F8B4024FF437
:10429000FA70FFF78FFAECE72400002008000020F6
:1042A000B40241420000414210B501460A680023B1
:1042B000012007E051F82040944202DD51F820200F
:1042C0000346401C0828F5DB184610BD10B52DED3F
:1042D000028BB0EE408ABCEEC80A10EE101A0348FA
:1042E000FEF78CFEBDEC028B10BD00000004004008
:1042F00010B52DED028BB0EE408ABCEEC80A10EE70
:10430000101A0348FEF77CFEBDEC028B10BD0000C6
:104310000004004010B52DED028BB0EE408ABCEEDB
:10432000C80A10EE101A0348FEF76CFEBDEC028BB3
:1043300010BD00000004004010B52DED028BB0EE62
:10434000408ABCEEC80A10EE101A0348FEF75CFE65
:10435000BDEC028B10BD00000004004010B52DED37
:10436000028BB0EE408AF0EE608AB5EEC08AF1EEC4
:1043700010FA07DD78EE280AB0EE600A012000F09E
:104380002DF808E0F1EE480A70EEA80AB0EE600AD7
:10439000002000F023F8BDEC028B10BD10B52DED10
:1043A000028BB0EE408AF0EE608AB5EEC08AF1EE84
:1043B00010FA07DD78EE280AB0EE600A012000F05E
:1043C00049F808E0F1EE480A70EEA80AB0EE600A7B
:1043D000002000F03FF8BDEC028B10BD10B52DEDB4
:1043E000028B0446B0EE408A17480068012813D1BA
:1043F000012C08D1B7EE000AFFF768FFB0EE480ABB
:10440000FFF776FF1DE0B0EE480AFFF75FFFB7EE5B
:10441000000AFFF76DFF14E0012C07D101200B49C2
:10442000086000200A49C1F8840206E0002007491C
:10443000086001200649C1F88402B0EE480AFFF77F
:1044400045FFBDEC028B10BD9800002080824042E9
:104450000080404210B52DED028B0446B0EE408A3C
:1044600017480068012812D144B9B0EE480AFFF796
:1044700051FFB7EE000AFFF75FFF1DE0B7EE000A3D
:10448000FFF748FFB0EE480AFFF756FF14E0012C93
:1044900007D101200B49086000200B49C1F8A80290
:1044A00006E000200749086001200749C1F8A8027A
:1044B000B0EE480AFFF71CFFBDEC028B10BD0000F8
:1044C0009800002088824042008040421C480068DA
:1044D000012828D11B4800681A49091D096888422B
:1044E00005D9012017490860091D086005E0012071
:1044F0001449091D0860091F086012480830006847
:1045000010490C310968884206D901200D4908314B
:104510000860091D086012E001200A490C3108609A
:10452000091F08600BE00020074908600749C1F82F
:1045300084020549083108600449C1F8A80270479F
:1045400098000020340400408082404200804042B5
:1045500010B52DED028BB0EE408AF0EE608AB0EE21
:10456000080A3B4880ED000AB7EE000A80ED010A18
:104570009FED380A80ED020A374890ED000ADFED22
:10458000370A30EEC00A324880ED0C0A324890ED0E
:10459000000ADFED330A30EE200A2D4880ED0D0AC7
:1045A00080ED088A2F4890ED020AB8EEC00A28482C
:1045B00080ED090AB0EE080A2B4880ED000AB7EE3C
:1045C000000A80ED010A9FED230A80ED020A2748C8
:1045D00090ED000ADFED210A30EEC00A224880ED9E
:1045E0000C0A224890ED000ADFED1D0A30EE200A89
:1045F0001D4880ED0D0AC0ED088A1A4890ED050AA5
:10460000B8EEC00A184880ED090A114800F0B4F865
:10461000154800F0B1F80E48D0ED0B0AB0EE600A74
:104620000D48D0ED000AFFF799FE0F48D0ED0B0AB8
:10463000B0EE600A0D48D0ED000AFFF7AFFE044867
:10464000806B0949896B0840BDEC028B10BD0000EE
:104650002C010020000000001C0000200000C842C7
:104660000000C8C2A404002078010020200000201F
:1046700010B5FDF7E7FB034800F08CF8024800F0A6
:1046800089F810BD2C010020780100200146084661
:10469000F7EE001AF0EE610ADFED361AB0EE610AAD
:1046A000F7EE001AB0EE611A00E0401C0278302AE2
:1046B00002DB0278392A0BDD02782B2A08D0027837
:1046C0002D2A05D002782E2A02D00278002AECD1B9
:1046D000027822B9DFED271AB0EE610A48E00278CD
:1046E0002D2A04D1FFEE001AB0EE611A401C0278A8
:1046F0002B2A00D1401C0CE00278303A01EE902ABF
:10470000F8EEE11AB2EE042A40EE021AB0EE610AA7
:10471000401C0278302A02DB0278392AECDD02786C
:104720002E2A1AD1401C12E00278303A01EE902A6B
:10473000F8EEE11AB2EE042A40EE021AB0EE610A77
:10474000401CF2EE041A60EEA11AF0EE610A027843
:10475000302A02DB0278392AE6DDB5EEC00AF1EE36
:1047600010FA05D061EE001A81EEA02AB0EE420ADE
:10477000704700000000000000B5034693ED091AE1
:10478000F0EE410A93ED081AB0EE410A184600F027
:1047900009F800BD10B504464C212046FBF7F9FD91
:1047A00010BD0000014691ED121AB8EEC11AD1ED0C
:1047B000091A21EE211A886CC0F1010001EE900A5D
:1047C000F8EEE11A01EEA01A81ED091A91ED051A31
:1047D00081ED061A91ED041A81ED051A30EE601A8A
:1047E00081ED041A91ED031AB5EEC01AF1EE10FA3C
:1047F00007D191ED071AD1ED041A31EE211A81ED9E
:10480000071A91ED031AB5EEC01AF1EE10FA2AD08C
:1048100091ED041AD1ED051A31EE611AD1ED001AAD
:1048200021EE211AD1ED011A91ED042A01EE821A2E
:10483000D1ED041A91ED052AF0EE002A42EEC21ADB
:1048400091ED062A71EE821A91ED022A02EE611AAA
:1048500081ED0A1A91ED0B1AD1ED0A1A31EE211AE7
:1048600081ED0B1A17E091ED001AD1ED041A21EE3B
:10487000211AD1ED011A91ED072A01EE821AD1ED2C
:10488000041A91ED052A71EEC21A91ED022A02EE88
:10489000611A81ED0B1A91ED0C1AB5EEC01AF1EE0A
:1048A00010FA06D191ED0D1AB5EEC01AF1EE10FA1C
:1048B00019D091ED0B1AD1ED0C1AB4EEE11AF1EE0C
:1048C00010FA03DD91ED0C1A81ED0B1A91ED0B1A24
:1048D000D1ED0D1AB4EEE11AF1EE10FA03D291ED1A
:1048E0000D1A81ED0B1A91ED041AD1ED051A31EE76
:1048F000611AB5EEC01AF1EE10FA06DD91ED041A58
:10490000D1ED051A31EE611A07E091ED041AB1EE0E
:10491000411AD1ED051A31EE611ADFED1C1AB4EE21
:10492000E11AF1EE10FA1DD291ED041AB5EEC01A9B
:10493000F1EE10FA02DD91ED041A03E091ED041A94
:10494000B1EE411AF6EE001AB4EEE11AF1EE10FAE9
:1049500008D2C86B401CC863C86B1E2805DD012047
:10496000886302E00020C8638863086C10B94FF4C4
:10497000E1700864D1E91020904201DD01208863D4
:10498000486C401C4864886B704700006F12833A83
:1049900070B504460D462946204600F01BF8064631
:1049A000314602A0FBF778FC70BD000025730D0AAC
:1049B0000000000000B52DED028B81B0B0EE408A02
:1049C0008DED008A01216846FFF7E2FF01B0BDECE2
:1049D000028B00BD2DE9F0432DED028B85B007461B
:1049E0008846C14600250026012426201C4908705F
:1049F00026E007EB850090ED000A10EE101A08463D
:104A000000F08AFF41EC180B53EC182B15A16846F7
:104A1000FBF74EFC21201249085505E0641C1DF8E7
:104A200006000F490855761C1DF806000028F5D130
:104A30000026641C21200A490855641C6D1C00BF17
:104A40004D45D6DB2A20064908550021044A601C42
:104A50001154104605B0BDEC028BBDE8F083000098
:104A600070040020256600002DE9F04785B004465B
:104A7000884691469A46002300265D1E002727E0BF
:104A8000E05C262823D11EE0012D06D1E05C212820
:104A900003D0E05C0DF80600761C012D0ED1E05C21
:104AA00021280BD100200DF806006846FFF7EEFD27
:104AB00008EB870080ED000A7F1C0026E05C2128BF
:104AC00000D16D425B1CE05C2A28DDD102E05B1C5A
:104AD0004B45D5DD00BF574503D0002005B0BDE8EC
:104AE000F0870120FAE7000010B500210320FDF750
:104AF00093FA01210220FDF78FFA02210020FDF731
:104B00008BFA00210620FDF787FA5A210120FDF7D4
:104B100083FA00210620FDF77FFA03210020FDF72C
:104B20007BFA28B10120E2490860E249C1F8B402E9
:104B300000210620FDF770FA01210A20FDF76CFA2A
:104B400028B10020DA490860DA49C1F8B402B4217A
:104B50000120FDF761FA00210620FDF75DFA012131
:104B60000A20FDF759FA02210020FDF755FA00212D
:104B70000620FDF751FA5A210120FDF74DFA0021D8
:104B80000620FDF749FA01210020FDF745FA002132
:104B90000620FDF741FA05210020FDF73DFA00212E
:104BA0000620FDF739FA01210520FDF735FAC24844
:104BB0000068C249096888424ED102210020FDF7F1
:104BC0002BFA00210620FDF727FA6FF0590101208A
:104BD000FDF722FA00210620FDF71EFA032100202E
:104BE000FDF71AFA00210620FDF716FA002102202F
:104BF000FDF712FA18B10020AD49091D0860B42173
:104C00000120FDF709FA00210620FDF705FA02212F
:104C10000020FDF701FA00210620FDF7FDF95A21D9
:104C20000120FDF7F9F900210620FDF7F5F9032130
:104C30000020FDF7F1F910B101209D490860002125
:104C40000620FDF7E9F9B4210120FDF7E5F900217F
:104C50000620FDF7E1F92AE197484068974909687D
:104C600088424ED102210020FDF7D6F9002106200E
:104C7000FDF7D2F95A210120FDF7CEF900210620D7
:104C8000FDF7CAF903210020FDF7C6F9002106202F
:104C9000FDF7C2F900210220FDF7BEF918B100208E
:104CA0008349091D0860B4210120FDF7B5F90021F1
:104CB0000620FDF7B1F902210020FDF7ADF9002132
:104CC0000620FDF7A9F96FF059010120FDF7A4F9BD
:104CD00000210620FDF7A0F903210020FDF79CF933
:104CE00010B101207249086000210620FDF794F9F7
:104CF000B4210120FDF790F900210620FDF78CF981
:104D0000D5E006210020FDF787F96FF05901012059
:104D1000FDF782F900210620FDF77EF90121002030
:104D2000FDF77AF900210620FDF776F9052100202C
:104D3000FDF772F900210620FDF76EF90321052029
:104D4000FDF76AF95C4880685C49096888421ED1B1
:104D500002210020FDF760F900210620FDF75CF933
:104D60006FF059010120FDF757F900210620FDF7EA
:104D700053F903210020FDF74FF918B101204C49E8
:104D8000091D086000210620FDF746F98FE04A481A
:104D9000C0684A49096888421DD102210020FDF7F8
:104DA0003BF900210620FDF737F95A210120FDF7D4
:104DB00033F900210620FDF72FF903210020FDF72C
:104DC0002BF918B101203A49091D0860002106207D
:104DD000FDF722F96BE0B4210120FDF71DF9002158
:104DE0000620FDF719F902210020FDF715F9002131
:104DF0000620FDF711F901210020FDF70DF9002132
:104E00000620FDF709F905210020FDF705F900212D
:104E10000620FDF701F905210846FDF7FDF82648B3
:104E200000692649096888421ED102210020FDF749
:104E3000F3F800210620FDF7EFF86FF0590101208B
:104E4000FDF7EAF800210620FDF7E6F8032100202F
:104E5000FDF7E2F818B101201549091D086000218D
:104E60000620FDF7D9F822E0134840691349096884
:104E700088421CD102210020FDF7CEF80021062037
:104E8000FDF7CAF85A210120FDF7C6F800210620D7
:104E9000FDF7C2F803210020FDF7BEF818B101208C
:104EA0000349091D086000210620FDF7B5F810BD73
:104EB000B082404200804042CC0000200C00002024
:104EC00001460A68012003E051F820301A44401CD2
:104ED0000828F9DB1046704710B511480068012812
:104EE00002D11048006808B9002010BD0D480068C4
:104EF000441E0D4850F82400401C0B4941F8240082
:104F00000846FFF7DDFF502807DD0748FFF7CCF91B
:104F1000401C064908600120E7E70020E5E70000A3
:104F2000640000205C000020AC0000200C00002089
:104F300010B52DED048BB0EE408AB5EEC08AF1EECF
:104F400010FA02DDB0EE480A01E0B1EE480ADFEDEA
:104F5000120AB4EEE00AF1EE10FA02D8F2EE048A78
:104F600001E0F2EE048ADFED0C0A88EE200A20EE62
:104F7000289A0A4890ED000AF8EEC01A90ED000A4F
:104F8000B8EEC01AF1EE490AB0EE490AFEF7F6FC97
:104F9000BDEC048B10BD00000000B44224000020D2
:104FA00010B588B0044601210846FDF7E3FA012157
:104FB0004804FDF7EFFA072202212248FDF776F9AF
:104FC000072203211F48FDF771F90C2006900220EB
:104FD0008DF81C008DF81D0000208DF81E000120AA
:104FE0008DF81F0006A91748FDF718F90294002054
:104FF000ADF80C00ADF80E00ADF81000ADF81400DF
:105000000420ADF8120002A90F48FEF7EBF90121C8
:105010000D48FEF78BF926208DF8040000208DF84E
:1050200005008DF8060001208DF8070001A8FDF7A6
:105030001BFA012240F225510348FEF7ADF908B0F2
:1050400010BD0000000002400044004010B588B0D0
:10505000044601210846FDF78DFA01211020FDF7D5
:10506000A9FA072209212348FDF720F907220A217E
:105070002048FDF71BF94FF4C060069002208DF820
:105080001C008DF81D0000208DF81E0001208DF8F9
:105090001F0006A91748FDF7C1F802940020ADF8DB
:1050A0000C00ADF80E00ADF81000ADF814000C20A7
:1050B000ADF8120002A91048FEF794F901210E483C
:1050C000FEF734F9012240F225510B48FEF764F94E
:1050D00025208DF8040001208DF8050003208DF8AF
:1050E000060001208DF8070001A8FDF7BDF908B002
:1050F00010BD000000000240001001400E4890ED7D
:10510000000AF7EE000AB4EEE00AF1EE10FA11DB45
:1051100090ED000AF2EE000AB4EEE00AF1EE10FAA9
:1051200008D890ED000ABDEEC00A044880ED000AE0
:10513000012070470020FCE7440000200C00002004
:1051400010B52DED028BB0EE408AB1EE040A9A48FC
:1051500080ED000A9FED990A80ED020AB3EE040A81
:1051600080ED0C0ABBEE040A80ED0D0A944890ED28
:10517000000AB8EEC00A904880ED080A914890ED08
:10518000010A8D4880ED090AFFF7F6FAB5EE000A2C
:105190008D4880ED000A9FED890A80ED020A8B4858
:1051A00090ED000AB8EEC00A874880ED0C0A8748E7
:1051B0000068404200EE100AB8EEC00A824880ED56
:1051C0000D0A7D4890ED0B0A7F4880ED080A7D4866
:1051D00090ED020A7C4880ED090AFFF7CDFA7C4881
:1051E0000068062813DDB7EE000AB4EE408AF1EE3F
:1051F00010FA0CD1774890ED0A0AF2EE040AB4EEE8
:10520000E00AF1EE10FA02DD0120734908607348EC
:105210000068032813DDB0EE000AB4EE408AF1EE18
:1052200010FA0CD16B4890ED0A0AF0EE080AB4EEC1
:10523000E00AF1EE10FA02DD0120674908606448D7
:10524000006898B9B0EE080AB4EE408AF1EE10FAA0
:105250000CD1604890ED0A0AF3EE0E0AB4EEE00AB3
:10526000F1EE10FA02DD01205B4908605848006841
:10527000062813DDB1EE000AB4EE408AF1EE10FA12
:105280000CD1544890ED0A0ADFED550AB4EEE00A5D
:10529000F1EE10FA02DD01204F4908604C48006829
:1052A000062809DDB1EE040AB4EE408AF1EE10FAE8
:1052B00002D101204849086048480068032813DDEE
:1052C000B1EE080AB4EE408AF1EE10FA0CD1414872
:1052D00090ED0A0ADFED430AB4EEE00AF1EE10FAAF
:1052E00002DD01203C4908603B480068F0BBB1EE9C
:1052F000040AB4EE408AF1EE10FA06D1FFEE000A7D
:10530000BFEE000AFFF724F946E02F4890ED0B0AA4
:10531000B5EEC00AF1EE10FA10DD90ED0B1A2B4835
:1053200090ED000AB8EEC00A31EE000AF0EE400A35
:1053300090ED000AB8EEC00AFFF70AF9224890ED96
:105340000B0AB5EEC00AF1EE10FA25D890ED0B1A53
:105350001E48D0ED000AF8EEE00A70EEC10AB0EE89
:10536000600AD0ED000AF8EEE00A00E002E0FFF784
:10537000EFF811E0174890ED020AB8EEC00AF6EE19
:105380000C0A20EE200AF0EE408AF0EE680AB0EE39
:10539000680AFFF7DDF800BF0F480068012809D14F
:1053A0000C48806830B90B48406918B90120BDEC41
:1053B000028B10BD0020FAE7A802002000000000C8
:1053C00018000020F40300205C02002024000020CC
:1053D00068000020A4040020300000206C000020A1
:1053E000000070420000484210B500200A490860E1
:1053F000FFF76CF89FED090A094880ED020A9FED5E
:10540000070A80ED010AFEF737FB0648FFF7C2F9ED
:105410000548FFF7BFF910BD300000200000000074
:10542000F40300205C020020A80200200020704746
:1054300010B52DED028BB0EE408AB0EE000A1C488C
:1054400080ED000A1B4890ED000AB8EEC00A18482B
:1054500080ED080A184890ED010A154880ED090A08
:10546000192013490864BFEE000A144880ED000AB1
:10547000104890ED000AB8EEC00A104880ED080A06
:105480000D4890ED020A0D4880ED090A19200B49DC
:1054900008640748FFF770F90548406C0449096C37
:1054A000884203DD0120BDEC028B10BD0020FAE72D
:1054B000F402002018000020F40300204003002024
:1054C00010B50448FFF766F90348FFF763F9FFF7E3
:1054D0008BFF10BD40030020F402002010B500290E
:1054E0000AD00878002807D005487844FBF7DCFD8F
:1054F000002801D0002010BD0248784410BD0000F3
:10550000E2060000DA06000010B500290AD008788B
:10551000002807D005487844FBF7C6FD002801D0D5
:10552000002010BD0248784410BD0000D2060000E3
:10553000CA06000021F00042A2F16052B2F5801FBD
:1055400001F0004328BFD2F17F6C0BD95FEA001C49
:1055500043EAC20242EB507018BF704728BF20F0E8
:1055600001007047B2F5801FBCBF184670474FEA74
:10557000410C1CF5001F02D2084600F043BA70B57A
:1055800000F040F900000089FFF7F6BF4FF000403F
:10559000A0F580007047000002494FF0000000F0C5
:1055A00038BA00BF0000F87F491058BFC1F1404130
:1055B0005B1058BFC3F140438B42EFF3008070474C
:1055C00051EA030C17D41CF5801F58BFBCF5801F8F
:1055D00000F10680994218BF704708BF904270479B
:1055E00007D711F5801F58BF13F5801F19D49942B2
:1055F0007047894270471CF5801F08D5BCF5801F95
:10560000F7D58B4218BF704708BF824270474FF4EE
:10561000001C1CEB410F38BF1CEB430F01D28B4227
:10562000704770B500F0EEF8922449004FF0005139
:105630004FF08053FFF7B8BF51EA030C17D41CF5A5
:10564000801F58BFBCF5801F00F10680994218BF2B
:10565000704708BF9042704707D711F5801F58BFA9
:1056600013F5801F19D499427047894270471CF581
:10567000801F08D5BCF5801FF7D58B4218BF704737
:1056800008BF824270474FF4001C1CEB410F38BF2B
:105690001CEB430F01D28B42704770B500F0B2F89B
:1056A000922449004FF000514FF08053FFF77CBF28
:1056B000DFF848C170B51CEA111E1EBF1CEA1315A5
:1056C0009EEA0C0F95EA0C0F00F06F8081EA03044C
:1056D00023EA4C134EEAD47E21EA4C1141F48011A6
:1056E00043F48013AE44A1FB024CA0FB0365AEF172
:1056F0007F7E361955EB0C05A1FB034C4CF10003E2
:10570000A0FB021C16EB0C06654153F10003094295
:1057100018BF46F0010613F4007F0BD14FEA0331A6
:105720004FEA0530340341EA155140EA16506FF054
:1057300003020AE04FEAC3214FEAC520F40241EA1E
:10574000555140EA56506FF0020202EB2E4201EB37
:10575000025585EACE710AD05FEA440C18BF24F0E6
:10576000004450F1000041F1000120EAD47040F201
:10577000FE7C624500D270BDA84214BF4FF0804449
:105780004FF04044002E08BF0024BEF1806FA8BF38
:10579000A1F1C041BDE8704080F282804FF000006E
:1057A00001F1C04101F0004170479EEA0C0F0CEA84
:1057B000131518BF95EA0C0F06D04FF0000081EAD0
:1057C000030E0EF0004170BD00F01CF88900013E90
:1057D00000F007B800F009B84FEA430C5FEA5C5CE0
:1057E00008D081EA030100F05BB84FEA410C5FEAA0
:1057F0005C5CF6D14FF00000014970470000FF07E4
:105800000000F87F0EF1020E2EF0030E5EF8046B1E
:10581000364205D4012A43EB030515F5001F12D8C3
:10582000012841EB010C1CF5001F0CD80ED14FEAEA
:10583000D17C15F5001F0CEB4C0C0CF1020C08BFD1
:105840004CEBD37C04E04FF0080C01E04FEAD37C32
:105850000CEB4C0526FA05F606F00706B6F1040C2B
:1058600006D20EEB860CBDE870404CF0010C604790
:10587000DFE80CF0090B02024FF000414FF000008E
:10588000A1F5002170BD19461046012851EB010415
:1058900018BFD4F5001484BF002001F0004170BD92
:1058A0000808A0F500114FEA3101704753EA010CD6
:1058B00017D41CF5801F58BFBCF5801F00F106806F
:1058C0008B4218BF704708BF8242704707D713F555
:1058D000801F58BF11F5801F19D48B4270479B421F
:1058E00070471CF5801F08D5BCF5801FF7D599427D
:1058F00018BF704708BF904270474FF4001C1CEB64
:10590000430F38BF1CEB410F01D2994270470FB4CF
:105910000CBC03BCFFF7C1BE43004FEAD30C4FEAF7
:105920003C0C43401FBF40070CF1605113F0FE4F89
:1059300070471CF0006F03D100200CF0004170474D
:105940000CF0004343EA507010B540EACC0000F080
:105950000EF800BF000000924FEA0001FFF7A0BF61
:105960004FF000414FF00000A1F5002170470EF10B
:10597000020E2EF0030E5EF8044B244204D44FEACC
:105980004102B2F17F4F11D84FEA4003B3F17F4F8C
:105990000CD80ED14FEAD07CB2F17F4F0CEB4C0CFF
:1059A0000CF1020C08BF4CEBD17C04E04FF0080C6A
:1059B00001E04FEAD17C0CEB4C0324FA03F404F031
:1059C0000704B4F1040C06D20EEB840CBDE81040C1
:1059D0004CF0010C6047DFE80CF0070802024FF0C2
:1059E0000040A0F5800010BD0846420018BFD2F16B
:1059F000807288BF00F0004010BD4FF04070E1EEB3
:105A0000100A7047FF2141EAD050C0057047FAF7ED
:105A1000CDBD0CF00F03092B08BF082000F05F80FC
:105A20000A2B0BD0082B18BF704708BF1CF0400F83
:105A30000AD04FF000004FF0000170471CF0400FFB
:105A400018BF4FF0004070471CF0100F08D020F036
:105A5000704300F07F4242EAD3014FEA437070473F
:105A600000F0604021F07F4242EA000201F07F40F6
:105A700040EA727070474FF0FF0C4CF4E06C1CEA87
:105A800011531CBF9CEA030C9445C2BFDA4201EBE0
:105A900002517047002B0DD0BCF1000F0FD0002A2F
:105AA00001F00041A4BF41F0E04141F07F614FF0BF
:105AB0000000704701F000414FF00000704750EACD
:105AC00001334FF09B0C18BF4CF0806C7FF464AD39
:105AD0007047FBF78FB9FBF727BBFBF7B1BC1CF492
